:1000000000800020BD010000E50400009D04000008
:100010009D0400009D0400009D0400009D0400005C
:100020009D0400009D0400009D040000E504000004
:10003000E50400009D040000491600004D16000074
:10004000E5040000E5040000E5040000E50400000C
:10005000E5040000E5040000E5040000E5040000FC
:10006000E5040000E5040000E5040000E5040000EC
:10007000E5040000E5040000E5040000E5040000DC
:10008000E5040000E5040000E5040000E5040000CC
:10009000E5040000E5040000E5040000E5040000BC
:1000A000E5040000E5040000E5040000E5040000AC
:1000B000E5040000E5040000E5040000E50400009C
:1000C000E5040000E5040000E5040000E50400008C
:1000D000E5040000E5040000E5040000E50400007C
:1000E000E5040000E5040000E5040000E50400006C
:1000F000E5040000E5040000E5040000E50400005C
:10010000E5040000E5040000E5040000E50400004B
:10011000E5040000E5040000E5040000E50400003B
:10012000E5040000E5040000E5040000E50400002B
:10013000E5040000E5040000E5040000E50400001B
:10014000E5040000E5040000E5040000E50400000B
:10015000E5040000E5040000E5040000E5040000FB
:10016000E5040000F9080000E5040000E5040000D3
:10017000E5040000E5040000E5040000E5040000DB
:10018000E5040000E5040000E5040000E5040000CB
:10019000E5040000E5040000E5040000E5040000BB
:1001A000E5040000E5040000E5040000E5040000AB
:1001B000E5040000E5040000E5040000564B4CF2A5
:1001C000205210B51A804DF628121A8000BF00BFC9
:1001D00000F08CF9514B4FF010621A60504A9A604F
:1001E000504ADA60504A136813F4807304D14F49BF
:1001F0000B604FF4A85313604D4B1A78110703D5C9
:100200001A7842F008021A704A4B4B492A221A7097
:100210004A4A4B4B8B4204D252F8040F43F8040B6A
:10022000F8E7484B484900228B4202D243F8042B9E
:10023000FAE74649464A002352F8230041F82300D2
:1002400001336F2BF8D1434B434A802103F8011B44
:100250009342FBD1414B3D4A1A60414B8A221A70AE
:10026000A3F5805324225A70A0221A709A7992071B
:10027000FCD59A79D406FCD43A4A937903F00C035E
:10028000082B384BF9D103221A7140225A719A79FE
:100290009006FCD5334A9179324B4906FBD5324A58
:1002A000324911600221516020221A709A7902F0BD
:1002B0000C020C2AFAD12E4B2E4A1A602E4B45F610
:1002C000BF521A6000225A60072243F8042C2B4ABE
:1002D000C3F80C2D62B600F0DBF9144B1B68DA078B
:1002E00005D5274800F068F9264B274A1A60274BA6
:1002F0001B785B0609D5234C234B22689A4204D114
:100300001F4800F059F90023236001F0FFFA00F0C4
:10031000F3F801F0A3F9FEE70E2005403080044019
:10032000823F04000100002B10D0034014D0034092
:1003300002D0074000E00740288DFF1F101C00007E
:10034000B087FF1F288DFF1F6C8EFF1F0082FF1FCD
:100350000000000000E400E05FE400E008ED00E0E1
:100360000050064000400640448004400000333303
:1003700004800440C010050014E000E000002020CC
:10038000CB46DD5F1CE00340A5C3945A00F0074054
:10039000FFFFFFFFFFFFFFFFFFFFFFFFFFFFFFFF6D
:1003A000FFFFFFFFFFFFFFFFFFFFFFFFFFFFFFFF5D
:1003B000FFFFFFFFFFFFFFFFFFFFFFFFFFFFFFFF4D
:1003C000FFFFFFFFFFFFFFFFFFFFFFFFFFFFFFFF3D
:1003D000FFFFFFFFFFFFFFFFFFFFFFFFFFFFFFFF2D
:1003E000FFFFFFFFFFFFFFFFFFFFFFFFFFFFFFFF1D
:1003F000FFFFFFFFFFFFFFFFFFFFFFFFFFFFFFFF0D
:10040000FFFFFFFFFFFFFFFFFFFFFFFFDEF9FFFF23
:1004100010B5054C237833B9044B13B10448AFF33E
:1004200000800123237010BD288DFF1F00000000F5
:10043000141C0000084B10B51BB108490848AFF365
:1004400000800848036803B910BD074B002BFBD0A0
:10045000BDE81040184700BF000000002C8DFF1FB2
:10046000141C0000288DFF1F0000000001210D203A
:1004700000F0BAB808B501210D2000F0AFF84FF434
:100480007A7000F0B7F80D20002100F0A7F84FF4C3
:100490007A70BDE8084000F0ADB800BF08B5104C58
:1004A00008E0236859050DD423681A050FD4236882
:1004B000DB0411D423685803F3D500F01DFA236838
:1004C0005905F1D500F00EF823681A05EFD500F0B4
:1004D00009F82368DB04EDD500F004F8EAE700BF73
:1004E0003480044008B5FFF7D9FF00BF014B10224C
:1004F0001A80704700200540704700BF10B40F4BB2
:1005000053F8302092F880422CB1012369B182F86F
:10051000803010BC704703EBC0035B681A6841B9B8
:1005200022F002021A6010BC704782F8003110BC41
:10053000704742F003021A6010BC7047481A00006E
:100540001C4A02EBC00301295B6811D004291BD0AF
:1005500052F83000002280F8802229B1022920D0F0
:10056000032922D01A6070474FF480721A607047D6
:1005700052F830004FF4A27280F880121A601A68A4
:1005800022F020021A60704752F830104FF4A27225
:10059000012081F880021A601A6842F020021A6075
:1005A000704740F203121A6070474FF481721A606C
:1005B000704700BF481A000030B4054B054D064C8B
:1005C000002210211A602A602060196030BC704738
:1005D00014D0034004D0034000D00340212801D8A8
:1005E000FFF78CBF704700BF212801D8FFF7A8BFD5
:1005F000704700BF2DE9F843054672B6204F214BE6
:10060000214A1B683C68126862B6520102D5322B3F
:1006100088BF013495B3C3F5BB431C4EDFF864902B
:10062000DFF864803F334FF47A72A6FB031302FBBA
:1006300004F404EB131472B6D9F800103A68D8F831
:1006400000E062B6C1F5BB433F33A6FB03031EF0D7
:10065000806FC4EB13134FF47A7002D0322988BF35
:10066000013200FB0233B3F57A7F04D3013D05D09C
:1006700004F57A74DFE700F0F9FFDCE7BDE8F88302
:10068000448DFF1F18E000E004ED00E0ABAAAAAA29
:10069000F8B52D4B2D49DFF8D0E0DFF8D0C02C4E57
:1006A0002C4D2D4C2D4A2E4F4FF4000018604FF06A
:1006B000807018604FF0007018604FF08060186014
:1006C0004FF0006018600020086028234BF6FF718F
:1006D000CCF80010CEF80030336013602B6023603C
:1006E0003B60B3629362082245F8242CC4F8D80F0B
:1006F00005F57F65C7F8D41F07F5FF2707F5FA67EB
:10070000C6F8F83F2B6006F5FF26C4F8D42F05F590
:10071000FD2504F5FF24386006F2F47611483160B7
:1007200005F5FF6504F5FD642B602360026001F0B0
:1007300013F81920FFF75EFF00F070FE40F213106F
:10074000BDE8F840FFF756BF08E100E00480034031
:1007500014800340248003402C8003401C8003400D
:100760003480034000800B400C800340088003402D
:10077000431E032B14D872B60A4951F8230068B1FE
:1007800070B4094C058834F81320466841F823609A
:10079000521B24F8132062B670BC704762B67047D3
:1007A00000207047A08DFF1F648EFF1F30B472B60B
:1007B0002B4A13781D0706D52A4B196A002936D013
:1007C000996A002941D053781C0706D5254B196C2E
:1007D00000293ED0996C002939D09378190705D5A6
:1007E000204B196E002936D0996E89B1D3781B073A
:1007F00007D51C4BD3F880207AB3D3F88820112179
:100800003AB162B6184B00221A7030BC00F082BEBA
:100810000D21154C154D227843F8315003EBC103DF
:100820000830013A5860227062B630BC704704222A
:100830000D4C0F4D217843F8325003EBC2030830C2
:100840004A1E5860227062B6EFE70521E1E70921F0
:10085000DFE70822ECE70C22EAE71022E8E700BF16
:10086000581B00000080FF1F1D8EFF1FC8004000A6
:1008700088004000431E032B1DD81B4A400140F056
:10088000100030B4104472B6184CE25C032A1BD836
:10089000DFE802F00212151703220D88E25410F06F
:1008A000080F14BFC823882343EA054308310360B7
:1008B000416062B630BC704708300222EDE7052285
:1008C000EBE708300422E8E7094A52F8230038B180
:1008D000084A52F82300416042F8231062B6E9E763
:1008E00042F82310034AF7E70080FF1F2C8EFF1FFA
:1008F000F48DFF1F048EFF1F2DE9F04FDFF804B3C6
:10090000DFF804A387B044E0A74F4FEA930807EB52
:10091000C809013ED9F8042003F00803F6B2A2F199
:10092000080003F0FF04002B40F0118157F8383025
:100930001B0C99B222F8081C002B00F0FF809B4B87
:1009400022F8064C42F8044C53F82620002A00F006
:100950007E81974D55F826305860964C45F8260014
:1009600034F81630194424F8161000F0B3FD0028AE
:1009700000F06681904A914B19F0080F00F10800D1
:1009800018BF1346C9F8040047F8383008238BF81D
:1009900000309BF80040E4B265071BD5884B1B78FC
:1009A000ABB188490A7802F0FF032AB1013BDBB200
:1009B0000B70002B00F02D8583490A7802F0FF03AD
:1009C0002AB1013BDBB20B70002B00F0368104230F
:1009D0008BF8003004F0080303F0FF02002B00F056
:1009E00015819AF80030DBB21E098DD19A08DFF824
:1009F000B89159F8321009EBC200C1F383010139F3
:100A000040680C297DD8DFE801F080807C7C7C7C0C
:100A10007C7C467C7C7C0700D0F800E06B4C416815
:100A20006B4F6C4E6160C4F800E01FFA8EF140F22B
:100A3000816E0025604B49F83230012071453D60E0
:100A4000C9F81050C9F818503070574A00F2128196
:100A5000B1F5D06F80F09E83B1F5817F00F0B48353
:100A600000F26E82802900F09083822940F0B282E9
:100A7000A18801F07F01042900F2AC82564B574A4D
:100A800089000B441570557019788D0740F1AF83BC
:100A90001070022020E34E4F3A6842B3504B4D4E47
:100AA0005049188834780D784028864645F0020869
:100AB00028BF4FF0400E002C84F001043470CEEBC0
:100AC00000000CBF8824C82409EBC80680B285F05A
:100AD000010544EA0E447260188049F838407244B7
:100AE0000D7018B9BEF1400F18BF00223A60374BA5
:100AF0001A88B2F5A06F04D100219A7859703A4B48
:100B00001A703A4A0123137040E7304C258842F2AC
:100B100021018D4200F088822168354C2B4DA14285
:100B200000F05F82334CA14204D16C6832498C42A0
:100B300000F01C82204949F83210E2E71E4A1F4BA0
:100B400019F0080F18BF134647F838301EE700F0B9
:100B5000E1FC2A4A2A4952F82630002B7BD05868FB
:100B60008C5D42F8260003F10802C9F80420032C2A
:100B700005D8DFE804F015120F0204228A551A88FE
:100B800019F0080F0CBF8823C82343EA024347F833
:100B90003830FBE605228A55F1E702228A55EEE756
:100BA00003228A55EBE700BF0080FF1FA08DFF1FC7
:100BB0004C8DFF1F648EFF1FC8004000880040005E
:100BC000288EFF1FB18DFF1F3C8EFF1F148EFF1F4D
:100BD000488DFF1FB08DFF1FC0200740208EFF1FD4
:100BE0005C8DFF1F1C8EFF1F98200740942007403C
:100BF000210900022109000301000400F48DFF1FF8
:100C00002C8EFF1F8020074090200740E00700F156
:100C10002382210600F15282A20706D5B44AB549C3
:100C200013780220DBB213700870E30602D5B14BD3
:100C300010221A7007B0BDE8F08F00F0C3FCC6E6C2
:100C4000AD4A47F838001378013313709EE643F835
:100C50002600AA4D81E68B5D032B00F28F8201A254
:100C600052F823F08D0900008D090000AD1000003E
:100C7000A710000040F62115A94200F0358100F2CE
:100C80009F81B1F5086F00F02382B1F5106F40F03D
:100C9000A1819B48116AA47804700C0600F1B88207
:100CA000D9F828209749100600F1AD82D9F83020F4
:100CB0009449120600F1A282D9F83820914913060E
:100CC00000F19782D9F840208E49150600F1528331
:100CD000D9F848208B49140600F14783D9F85020F1
:100CE0008849100600F13C83D9F85820854912063E
:100CF00000F13183D9F860208249130600F1448362
:100D0000D9F868207F49150600F13983D9F8702099
:100D10007C49140600F10283D9F87820794910063D
:100D200000F1F782D9F880207649120600F10D8390
:100D3000D9F888207349130600F10183D9F890206F
:100D40007049150600F1F582D9F898206D4914060E
:100D500000F1E9826C486D4A6D4901906D486E4C16
:100D6000664D029400230497059680461C4617465C
:100D70000E460395386828B1456800F0CBFB28463D
:100D8000002DF9D100233B60039B30681A460023F5
:100D900042F8243028B1456800F0BCFB2846002DFD
:100DA000F9D100223260019A98F8003011460022F1
:100DB00041F8042B029A0191023B4FF0000122F806
:100DC0001410032B09D8DFE813F074010400740138
:100DD00004004FF0010388F800300134042C07F1BF
:100DE000040706F1040608F10108C3D14B4C424D3B
:100DF00022784B4B049F059E0021100729701A7022
:100E000000F17282474962780A700021C9F83010F7
:100E1000C9F838101107DFF8EC8000F15082A27891
:100E20004149DFF8E0800A7000211207C9F850102C
:100E3000C9F8581000F12C82E2783C49314C0A7014
:100E400013074FF00001C9F87010C9F8781000F1CD
:100E5000E48133780293002283F00105C9F89020E1
:100E6000C9F8982000200190804686460246304905
:100E70000C7844F0020C09EBCC030393029B002B8B
:100E8000039B5A600CBF8822C82242EA080384F000
:100E9000010249F83C3035700A70DFF868C0254B14
:100EA000DFF88C80002840F03B81BEF1400F1BD161
:100EB00042F0020C09EBCC03019ADFF848E05A60DB
:100EC000002D40F04381050445F088059DF8083069
:100ED0004EF83C50024433700C701346402803D146
:100EE0000020154A3B601080144A0123137008E665
:100EF00088200740802007401D8EFF1F4C8DFF1F5C
:100F0000288EFF1F0080FF1F048EFF1FA08DFF1F74
:100F1000F48DFF1F2C8EFF1F648EFF1F581B0000D7
:100F2000C4200740C8200740CC200740D0200740FD
:100F30001C8EFF1FB08DFF1F5C8DFF1F942007408C
:100F400040F20232914240F0E380A28802F07F0238
:100F5000042A3FD86588002D3CD1BB4902909200FD
:100F600011440A7842F002020A707BE70178A9294D
:100F70007FF4E0AD417845297FF4DCAD8178C2296A
:100F80007FF4D8ADC1786B297FF4D4ADAF49B04EB2
:100F90000878347880F00105002C40F002000D70D4
:100FA0000CBF8821C82184F0010449F8301009EBF6
:100FB000C000A84934700025052445600C70B9E5CF
:100FC00040F62122914200F0A78042F22122914274
:100FD00000F0A2809C4A0F2313709F4A01231370D4
:100FE0008FE56968B1F5803F7FF4A4AD9749984ECD
:100FF0000C789A4F00783578387044F0020084F00D
:1010000001070F7009EBC001002D4FF0000485F0BF
:10101000010535704C600CBF8825C825904949F8FA
:10102000305049F832106CE58849894E0D78377890
:1010300085F0010E002F45F0020581F800E00CBF9D
:101040008821C82149F8351009EBC50587F001074B
:101050000021377069605FE5824B7F487B491A61E8
:101060004FF0020E80F800E0774F0A707E49196059
:1010700099607E4E7E4D7F4C9A610D213970FF2123
:101080003170DFF808E2297022707B4D7B4A8EF8C0
:1010900000109F27012406F8047C5D600470DA606C
:1010A00007B0BDE8F08F01238B556FE400238B550B
:1010B0006CE44FF0000388F800308EE662496C4B18
:1010C00080220D2008701A70A2077FF5AEADA5E54D
:1010D0006B496C4A09781170E588854280F08981F6
:1010E0005A490C78402DAE4644F0020C28BF4FF010
:1010F000400E02EB0E0309EBCC000193012342608A
:101100004FEA0E48CEEB050002930025C822BCE64C
:10111000B1F5A06F7FF45EAF012300250293A1E635
:1011200040287FF6C5AE42F002020CEBC201019EE0
:101130004E60BDB19DF8085049491D703346403896
:1011400088F8004040334CF83210CAE69DF8083069
:1011500033700504019B0C7045F0C80503444EF83C
:101160003C50BBE69DF808501D70019B3E4988F835
:101170000040403840334CF83210B2E619F0080F06
:101180000CBF022303238B5500E43E4A0220157056
:101190005570A1E73C494A68002A3FF41BAF6588B7
:1011A000B4F804E004E00C314A68002A3FF412AFBE
:1011B0000B88AB42F7D14B887345F4D12D0A032D30
:1011C0000CBF1078088987E7A28802F07F02042A02
:1011D0003FF600AF6588002D7FF4FCAE1A490290FF
:1011E000920011440A7822F002020A703AE60220C4
:1011F00072E7C86B083800F08DF963E5486B083872
:1012000000F088F958E5C86A083800F083F94DE520
:10121000506A083800F07EF942E500F05BF90028DA
:1012200000F0D5800830104AC4F88400C4F880204B
:1012300000F050F9002800F0C4800830084AC9F8CE
:101240008C00C9F8882004E6C02007401C8EFF1FD0
:10125000B08DFF1FB18DFF1F94200740308EFF1F00
:10126000C80040000080FF1F880040008820074021
:101270008020074098200740608DFF1FB48DFF1F1E
:10128000288EFF1F208EFF1F5C1B00008C20074054
:1012900000F020F9002800F0A68008305D4AC8F868
:1012A0006400C8F8602000F015F9002800F095806F
:1012B0000830594AC9F86C00C9F86820BCE500F04C
:1012C00009F9002877D00830524AC8F84400C8F815
:1012D000402000F0FFF8002867D008304E4AC9F8D7
:1012E0004C00C9F848209AE500F0F4F8002856D0E0
:1012F0000830484AC9F82400C9F8202000F0EAF86C
:10130000002846D00830444AC9F82C00C9F82820E3
:1013100078E5C86F083800F0FDF803E5486F083835
:1013200000F0F8F8F8E4D1F89C00083800F0F2F882
:1013300010E5D1F89400083800F0ECF804E5D1F895
:101340008C00083800F0E6F8F8E4D1F8840008389A
:1013500000F0E0F8ECE4C86D083800F0DBF8C9E410
:10136000486D083800F0D6F8BEE4C86C083800F0C4
:10137000D1F8B3E4486C083800F0CCF8A8E4C86EA3
:10138000083800F0C7F8C1E4486E083800F0C2F829
:10139000B6E42A78C9F8280001322A7032E52A78A2
:1013A000C9F8200001322A70A8E72A78C9F8480055
:1013B00001322A7033E52A78C8F8400001322A70D9
:1013C00087E72A78C9F8880001322A7041E52A782F
:1013D000C4F8800001322A702AE72A78C9F8680028
:1013E00001322A7028E52A78C8F8600001322A7094
:1013F00059E74028864628BF4FF0400E02EB0E0307
:1014000001930123CEEB00004FEA0E480025029322
:101410002DE500BE88004000C80040002DE9F843DB
:10142000204C00F009FA002204F1A00023461A60C3
:101430005A60083383424FF00001F8D11A4A1B4F1B
:1014400013681B4D1B481C4EDFF87880DFF878C00E
:10145000DFF87890DFF878E043F480231360C4F37A
:1014600007233B70C4F307432B70240EFF2302F5C0
:1014700028320470114D88F8003011488CF8003083
:10148000D4323370012389F8003070268EF80010B2
:101490004FF40074102107F8183C2E70046011708E
:1014A000BDE8F8830080FF1F348004409C20074083
:1014B000B0200740B42007401020074049E400E076
:1014C00008E100E080200740882007409420074082
:1014D0000021074072B60D480268B2FA82F30D2B64
:1014E00010DC4FF00041D94022EA0102026062B6EE
:1014F000074803EBC303DB00C2180021C1501046AC
:101500005160704762B60020704700BFB087FF1F70
:10151000BC83FF1F0D4B0E4AC31AA2FB03231B09FA
:101520000D2B0CD80B4A127852B972B60A484FF0FC
:101530000041026821FA03F31A43026062B6704761
:10154000064A1278002AF0D0FFF730B9BC83FF1F9B
:10155000398EE3381D8EFF1FB087FF1F288EFF1FB7
:1015600038B5164D2868E0B101884488A14213DDE2
:1015700003191B7A83B104F10803C2180C1B002362
:1015800002E012F8011F21B10133A342F9D1204634
:1015900038BD1C46204638BDFFF7BCFF0020286040
:1015A00038BD074B1B780BB9002038BD0220FFF770
:1015B000DFF828600028D7D1F6E700BF388EFF1F7C
:1015C000288EFF1F0D4B1B78BBB910B50C4C216842
:1015D00003F0FF024B883F2B07DC07330B4401F17C
:1015E000470003F8012F8342FBD140230B800120E9
:1015F000FFF740F90023236010BD7047318EFF1FB5
:10160000348EFF1F70B5EFF3108272B60C4C206859
:1016100080B10C4E00254369236073B19D6102B90E
:1016200062B6457783689847EFF3108272B62068F8
:101630000028F0D102B962B670BD3360EFE700BF99
:10164000408EFF1F448EFF1FFFF7DCBF024A136866
:1016500001331360704700BF448DFF1F08B5FEF7CC
:1016600005FFFEF707FF00F001F8FAE72DE9F84360
:10167000314E337893B1314F3A787AB90122D90794
:101680003A7036D49A0719D400225B073A7005D510
:101690002B4B1A6812B1EFF305820AB1BDE8F8834B
:1016A000EFF3108172B6186818B1264C2278002A20
:1016B0002ED00029F2D162B6BDE8F883DFF8908021
:1016C00098F80020002ADFD0DFF88890002405E099
:1016D000013498F80030E4B2A34212D959F82450EA
:1016E0002B6828461B6998470028F1D02B6998473A
:1016F000EEE7FFF735FFC8B9134B1B781BB93378FA
:10170000C0E73378C0E7337803F0FE033370B9E7FE
:1017100045691D60012323705DB1AA6101B962B6FC
:1017200000254577836898472570B7E700F0C6F82D
:10173000E2E7064B1D60F1E7B487FF1F518EFF1FE4
:101740004C8EFF1F508EFF1FFA88FF1F488EFF1F11
:10175000608EFF1F548EFF1F30B42948294A2A4B40
:101760002A4D6024E121047011701B78284C082B4D
:1017700030D00A2B2748284937D00C2B0CBF3422F5
:101780003C2212232A60236002600B60234B244911
:101790001B78244ABBB101230B601360224B234901
:1017A0001B78234A012B26D9042B0FD9082B1ED9CD
:1017B000102B94BF862387230B6013601D4B0122DF
:1017C0001A7030BC70470B601360E7E784230B602E
:1017D0001360F3E700F58E200F4908300022132331
:1017E0002A60236002600B60D0E73822F7E7852388
:1017F0000B601360E2E780230B601360DEE700BF3D
:101800000040074001400740B587FF1F08B0034074
:101810000CB0034008B00B400CB00B40538EFF1FC0
:1018200020B0034020B00B40B687FF1F24B0034018
:1018300024B00B40528EFF1F70B584B072B6194BA6
:10184000194D1A48702241260F2480211A702E70DB
:101850001A460470197013781B06FCD5144B1868CF
:1018600062B6144B144C984298BF00EB800001A95B
:1018700098BF40000A2200F023F801A92046002367
:1018800011F8012B01333AB10A2B20F8022FF7D1BE
:101890001623237004B070BD5B00DBB2237004B06C
:1018A00070BD00BF00000240070002400600024079
:1018B000080002407F969800E488FF1F704700BF31
:1018C000F0B44D1E2E46002400E00134B0FBF2F3CC
:1018D00002FB1300092800F130078ABF3730F8B245
:1018E000C0B206F8010F1846002BEED10A1953704A
:1018F0004CB1107815F8016F28700133E01A83425B
:1019000002F80169F5DB0846F0BC704770B50F4E70
:101910000F4D761BB61018BF002405D0013455F8C2
:10192000043B9847A642F9D10A4E0B4D761B00F0B6
:1019300065F9B61018BF002406D0013455F8043BF1
:101940009847A642F9D170BD70BD00BF081C0000C9
:10195000081C0000101C0000081C0000024B13B102
:10196000024800F005B87047000000007D19000033
:10197000002301461A46184600F014B838B5074D42
:10198000074C2C1BA41005D0013C55F8043D98478A
:10199000002CF9D1BDE8384000F03AB90000000051
:1019A000000000002DE9F047254C2568D5F8484196
:1019B0000646884692469946C4B360681F2817DCDD
:1019C000431C76B104EB80050122C5F888A0D4F849
:1019D000881182401143022EC4F88811C5F808917D
:1019E0001ED00230636044F820800020BDE8F087FC
:1019F000144B03B34FF4C870AFF300800446D0B16A
:101A0000D5F84831002780E88800C5F848413846B5
:101A10000123C4F88871C4F88C71002EE1D0D1E79D
:101A2000D4F88C110A43C4F88C21DAE705F5A674C2
:101A3000C5F84841C1E74FF0FF30BDE8F08700BF6F
:101A4000F81B0000000000004008FE4340A00440D6
:101A50004408FE4344A004400018FE4300C0044074
:101A60003000FE43309004403400FE433490044084
:101A70001C18FE431CC004401018FE4310C0044054
:101A80000818FE4308C004400C18FE430CC0044074
:101A90000C10FE430CB004401010FE4310B0044084
:101AA0001810FE4318B004401C10FE431CB0044044
:101AB0001410FE4314B004400418FE4304C0044054
:101AC0000010FE4300B004400008FE4300A00440A4
:101AD0000408FE4304A004400C08FE430CA004408C
:101AE0000808FE4308A004401418FE4314C0044034
:101AF0001818FE4318C004400410FE4304B004400C
:101B00000810FE4308B004401400FE431490044043
:101B10004C08FE434CA004400420FE4304D0044083
:101B20002410FE4324B004402010FE4320B00440A3
:101B30002810FE4328B004402C10FE432CB0044073
:101B40000020FE4300D004404808FE4348A0044063
:101B50001000FE43109004401519151500010000F7
:101B6000F887FF1F12000000000200002488FF1FFA
:101B70005B000000002201008088FF1F21000000A0
:101B8000002101004F88FF1F090000000022000013
:101B9000B887FF1F3F000000002100003688FF1FAC
:101BA0000900000000220200A488FF1F2800000096
:101BB000002102006F88FF1F0900000000030000E1
:101BC000E088FF1F00000000010309040C88FF1FCC
:101BD0000000000002030904CC88FF1F0000000081
:101BE00003030904E488FF1F000000000000000058
:101BF00000000000000000000089FF1FF8B500BFD2
:101C0000F8BC08BC9E4670475D1900003504000012
:041C1000F8B500BF64
:101C1400FFFFFFFF010A040005010906A101750188
:101C24009508050719E029E71500250181029501AA
:101C340075088103950575010508190129059102A7
:101C4400950175039103950675081500257F050711
:101C54001900297F8100C00012011001000000401A
:101C6400C016D004750201020301000018035400D9
:101C7400650065006E0073007900640075006900FA
:101C84006E006F0009025B00030100C0320904000A
:101C9400000103010100092111010001223F000795
:101CA4000583030800010904010002030000000980
:101CB40021110100012221000705810340000107D1
:101CC40005020320000209040200010300000009C8
:101CD40021110100012228000705840308000400E3
:101CE40006C9FF0904A15C7508150026FF0095408C
:101CF4000975810295200976910295040976B1024D
:101D0400C0000000050C0901A101750A9504190021
:101D14002A9C021500269C02810005017508950382
:101D2400190029B7150026B7008100C012034B0023
:101D34006500790062006F006100720064000000B9
:101D4400040309040C03000000000000000000006C
:101D5400000000000000000000000100000000007E
:101D640000000000EC8BFF1F548CFF1FBC8CFF1F76
:101D7400000000000000000000000000000000005F
:101D8400000000000000000000000000000000004F
:101D9400000000000000000000000000000000003F
:101DA400000000000000000000000000000000002F
:101DB400000000000000000000000000000000001F
:101DC400000000000000000000000000000000000F
:101DD40000000000000000000000000000000000FF
:101DE40000000000000000000000000000000000EF
:101DF40000000000000000000000000000000000DF
:101E040000000000000000000100000000000000CD
:101E14000E33CDAB34126DE6ECDE05000B00000092
:101E240000000000000000000000000000000000AE
:101E3400000000000000000000000000000000009E
:101E4400000000000000000000000000000000008E
:101E5400000000000000000000000000000000007E
:00000001FF
