:1000000000800020BD01000001050000B9040000CF
:10001000B9040000B9040000B9040000B9040000EC
:10002000B9040000B9040000B90400000105000093
:1000300001050000B90400005D1700006117000011
:100040000105000001050000010500000105000098
:100050000105000001050000010500000105000088
:100060000105000001050000010500000105000078
:100070000105000001050000010500000105000068
:100080000105000001050000010500000105000058
:100090000105000001050000010500000105000048
:1000A0000105000001050000010500000105000038
:1000B0000105000001050000010500000105000028
:1000C0000105000001050000010500000105000018
:1000D0000105000001050000010500000105000008
:1000E00001050000010500000105000001050000F8
:1000F00001050000010500000105000001050000E8
:1001000001050000010500000105000001050000D7
:1001100001050000010500000105000001050000C7
:1001200001050000010500000105000001050000B7
:1001300001050000010500000105000001050000A7
:100140000105000001050000010500000105000097
:100150000105000001050000010500000105000087
:10016000010500009D0800000105000001050000D8
:100170000105000001050000010500000105000067
:100180000105000001050000010500000105000057
:100190000105000001050000010500000105000047
:1001A0000105000001050000010500000105000037
:1001B000010500000105000001050000564B4CF24E
:1001C000205210B51A804DF628121A8000BF00BFC9
:1001D00000F09AF9514B4FF010621A60504A9A6041
:1001E000504ADA60504A136813F4807304D14F49BF
:1001F0000B604FF4A85313604D4B1A78110703D5C9
:100200001A7842F008021A704A4B4B492A221A7097
:100210004A4A4B4B8B4204D252F8040F43F8040B6A
:10022000F8E7484B484900228B4202D243F8042B9E
:10023000FAE74649464A002352F8230041F82300D2
:1002400001336F2BF8D1434B434A802103F8011B44
:100250009342FBD1414B3D4A1A60414B8A221A70AE
:10026000A3F5805324225A70A0221A709A7992071B
:10027000FCD59A79D406FCD43A4A937903F00C035E
:10028000082B384BF9D103221A7140225A719A79FE
:100290009006FCD5334A9179324B4906FBD5324A58
:1002A000324911600221516020221A709A7902F0BD
:1002B0000C020C2AFAD12E4B2E4A1A602E4B45F610
:1002C000BF521A6000225A60072243F8042C2B4ABE
:1002D000C3F80C2D62B600F097F9144B1B68DA07CF
:1002E00005D5274800F030F9264B274A1A60274BDE
:1002F0001B785B0609D5234C234B22689A4204D114
:100300001F4800F021F90023236001F017FC00F0E2
:1003100001F901F09FFAFEE70E200540308004400D
:10032000823F04000100002B10D0034014D0034092
:1003300002D0074000E007404491FF1FD026000094
:10034000B087FF1F4491FF1FD492FF1F0082FF1F41
:100350000000000000E400E05FE400E008ED00E0E1
:100360000050064000400640448004400000333303
:1003700004800440C010050014E000E000002020CC
:10038000DA47DD5F1CE00340A5C3945A00F0074044
:10039000FFFFFFFFFFFFFFFFFFFFFFFFFFFFFFFF6D
:1003A000FFFFFFFFFFFFFFFFFFFFFFFFFFFFFFFF5D
:1003B000FFFFFFFFFFFFFFFFFFFFFFFFFFFFFFFF4D
:1003C000FFFFFFFFFFFFFFFFFFFFFFFFFFFFFFFF3D
:1003D000FFFFFFFFFFFFFFFFFFFFFFFFFFFFFFFF2D
:1003E000FFFFFFFFFFFFFFFFFFFFFFFFFFFFFFFF1D
:1003F000FFFFFFFFFFFFFFFFFFFFFFFFFFFFFFFF0D
:10040000FFFFFFFFFFFFFFFFFFFFFFFFDEF9FFFF23
:1004100010B5054C237833B9044B13B10448AFF33E
:1004200000800123237010BD4491FF1F00000000D5
:10043000D4260000084B10B51BB108490848AFF39B
:1004400000800848036803B910BD074B002BFBD0A0
:10045000BDE81040184700BF000000004891FF1F92
:10046000D42600004491FF1F00000000704700BF29
:1004700010B50E4C2368052B14DC23220C490D48C3
:1004800001F07AF921680B4801F0DCF9094801F024
:1004900089F923680133236041F28830BDE81040B8
:1004A00000F064B8002001F039FB00BF6091FF1F2D
:1004B00078250000B887FF1F08B5104C08E02368B6
:1004C00059050DD423681A050FD42368DB0411D411
:1004D00023685803F3D500F0E1F923685905F1D5F5
:1004E00000F00EF823681A05EFD500F009F823682C
:1004F000DB04EDD500F004F8EAE700BF34800440E7
:1005000008B5FFF7D9FF00BF014B10221A807047D2
:1005100000200540704700BF094908B50B6830B19D
:100520006A461844A2F58052904202D208601846EA
:1005300008BD01F0EDFA0C2303604FF0FF3008BD59
:10054000B087FF1FFEE700BF30B4054B054D064CDA
:10055000002210211A602A602060196030BC7047A8
:1005600014D0034004D0034000D003402DE9F843E9
:10057000054672B6204F214B214A1B683C68126821
:1005800062B6520102D5322B88BF013495B3C3F550
:10059000BB431C4EDFF86490DFF864803F334FF4B8
:1005A0007A72A6FB031302FB04F404EB131472B675
:1005B000D9F800103A68D8F800E062B6C1F5BB433C
:1005C0003F33A6FB03031EF0806FC4EB13134FF4FD
:1005D0007A7002D0322988BF013200FB0233B3F5B2
:1005E0007A7F04D3013D05D004F57A74DFE701F08A
:1005F0003FF9DCE7BDE8F8836491FF1F18E000E0F5
:1006000004ED00E0ABAAAAAAF8B52D4B2D49DFF8FE
:10061000D0E0DFF8D0C02C4E2C4D2D4C2D4A2E4F63
:100620004FF4000018604FF0807018604FF00070B9
:1006300018604FF0806018604FF000601860002074
:10064000086028234BF6FF71CCF80010CEF800307C
:10065000336013602B6023603B60B36293620822B7
:1006600045F8242CC4F8D80F05F57F65C7F8D41FCA
:1006700007F5FF2707F5FA67C6F8F83F2B6006F580
:10068000FF26C4F8D42F05F5FD2504F5FF243860B6
:1006900006F2F4761148316005F5FF6504F5FD6456
:1006A0002B602360026001F059F91920FFF75EFF0B
:1006B00000F086FE40F21310BDE8F840FFF756BF89
:1006C00008E100E0048003401480034024800340DC
:1006D0002C8003401C8003403480034000800B408A
:1006E0000C80034008800340431E032B14D872B6CD
:1006F0000A4951F8230068B170B4094C058834F8F0
:100700001320466841F82360521B24F8132062B678
:1007100070BC704762B6704700207047C091FF1FE1
:10072000C892FF1F013803280BD872B6074B53F845
:10073000203043B100205B680130002BFBD162B652
:100740007047002070471846F9E700BF1492FF1F5A
:1007500030B472B62B4A13781D0706D52A4B196A96
:10076000002936D0996A002941D053781C0706D554
:10077000254B196C00293ED0996C002939D093780B
:10078000190705D5204B196E002936D0996E89B10D
:10079000D3781B0707D51C4BD3F880207AB3D3F846
:1007A000882011213AB162B6184B00221A7030BC71
:1007B00000F03ABF0D21154C154D227843F8315009
:1007C00003EBC1030830013A5860227062B630BCB6
:1007D000704704220D4C0F4D217843F8325003EB43
:1007E000C20308304A1E5860227062B6EFE7052146
:1007F000E1E70921DFE70822ECE70C22EAE7102213
:10080000E8E700BF182600000080FF1F3D92FF1F91
:10081000C800400088004000431E032B1DD81B4A1F
:10082000400140F0100030B4104472B6184CE25C45
:10083000032A1BD8DFE802F00212151703220D88E5
:10084000E25410F0080F14BFC823882343EA05437D
:1008500008310360416062B630BC70470830022244
:10086000EDE70522EBE708300422E8E7094A52F8F1
:10087000230038B1084A52F82300416042F823109F
:1008800062B6E9E742F82310034AF7E70080FF1F4A
:100890004C92FF1F1492FF1F2492FF1F2DE9F04F6F
:1008A000DFF804B3DFF804A387B044E0A74F4FEAB2
:1008B000930807EBC809013ED9F8042003F00803A8
:1008C000F6B2A2F1080003F0FF04002B40F0118102
:1008D00057F838301B0C99B222F8081C002B00F096
:1008E000FF809B4B22F8064C42F8044C53F826201C
:1008F000002A00F07E81974D55F826305860964CBE
:1009000045F8260034F81630194424F8161000F083
:100910006BFE002800F06681904A914B19F0080F99
:1009200000F1080018BF1346C9F8040047F8383032
:1009300008238BF800309BF80040E4B265071BD514
:10094000884B1B78ABB188490A7802F0FF032AB1C3
:10095000013BDBB20B70002B00F02D8583490A7838
:1009600002F0FF032AB1013BDBB20B70002B00F059
:10097000368104238BF8003004F0080303F0FF02F3
:10098000002B00F015819AF80030DBB21E098DD1E2
:100990009A08DFF8B89159F8321009EBC200C1F398
:1009A0008301013940680C297DD8DFE801F080809F
:1009B0007C7C7C7C7C7C467C7C7C0700D0F800E0E6
:1009C0006B4C41686B4F6C4E6160C4F800E01FFADD
:1009D0008EF140F2816E0025604B49F832300120E3
:1009E00071453D60C9F81050C9F818503070574A29
:1009F00000F21281B1F5D06F80F09E83B1F5817F56
:100A000000F0B48300F26E82802900F09083822986
:100A100040F0B282A18801F07F01042900F2AC828B
:100A2000564B574A89000B441570557019788D073D
:100A300040F1AF831070022020E34E4F3A6842B37A
:100A4000504B4D4E5049188834780D7840288646D2
:100A500045F0020828BF4FF0400E002C84F001043E
:100A60003470CEEB00000CBF8824C82409EBC80604
:100A700080B285F0010544EA0E447260188049F89E
:100A8000384072440D7018B9BEF1400F18BF0022F3
:100A90003A60374B1A88B2F5A06F04D100219A78DA
:100AA00059703A4B1A703A4A0123137040E7304CA0
:100AB000258842F221018D4200F088822168354C60
:100AC0002B4DA14200F05F82334CA14204D16C68EF
:100AD00032498C4200F01C82204949F83210E2E78A
:100AE0001E4A1F4B19F0080F18BF134647F838303D
:100AF0001EE700F099FD2A4A2A4952F82630002BB9
:100B00007BD058688C5D42F8260003F10802C9F8D2
:100B10000420032C05D8DFE804F015120F0204228C
:100B20008A551A8819F0080F0CBF8823C82343EA96
:100B3000024347F83830FBE605228A55F1E70222E6
:100B40008A55EEE703228A55EBE700BF0080FF1FBE
:100B5000C091FF1F6C91FF1FC892FF1FC80040008B
:100B6000880040004892FF1FD191FF1F6C92FF1F29
:100B70003492FF1F6891FF1FD091FF1FC0200740D4
:100B80004092FF1F7C91FF1F3C92FF1F982007405F
:100B900094200740210900022109000301000400FC
:100BA0001492FF1F4C92FF1F8020074090200740A7
:100BB000E00700F12382210600F15282A20706D548
:100BC000B44AB54913780220DBB213700870E3060B
:100BD00002D5B14B10221A7007B0BDE8F08F00F0BB
:100BE0007BFDC6E6AD4A47F8380013780133137031
:100BF0009EE643F82600AA4D81E68B5D032B00F2AA
:100C00008F8201A252F823F031090000310900005F
:100C1000511000004B10000040F62115A94200F0D1
:100C2000358100F29F81B1F5086F00F02382B1F5A4
:100C3000106F40F0A1819B48116AA47804700C06E3
:100C400000F1B882D9F828209749100600F1AD824A
:100C5000D9F830209449120600F1A282D9F8382040
:100C60009149130600F19782D9F840208E49150664
:100C700000F15283D9F848208B49140600F14783CC
:100C8000D9F850208849100600F13C83D9F8582043
:100C90008549120600F13183D9F860208249130694
:100CA00000F14483D9F868207F49150600F13983A3
:100CB000D9F870207C49140600F10283D9F8782015
:100CC0007949100600F1F782D9F88020764912069A
:100CD00000F10D83D9F888207349130600F10183D0
:100CE000D9F890207049150600F1F582D9F89820BE
:100CF0006D49140600F1E9826C486D4A6D49019016
:100D00006D486E4C664D029400230497059680460C
:100D10001C4617460E460395386828B1456800F012
:100D200083FC2846002DF9D100233B60039B3068EB
:100D30001A46002342F8243028B1456800F074FCBC
:100D40002846002DF9D100223260019A98F800302F
:100D50001146002241F8042B029A0191023B4FF008
:100D6000000122F81410032B09D8DFE813F07401F6
:100D70000400740104004FF0010388F800300134CE
:100D8000042C07F1040706F1040608F10108C3D199
:100D90004B4C424D22784B4B049F059E002110077F
:100DA00029701A7000F17282474962780A70002136
:100DB000C9F83010C9F838101107DFF8EC8000F1DD
:100DC0005082A2784149DFF8E0800A7000211207C2
:100DD000C9F85010C9F8581000F12C82E2783C494B
:100DE000314C0A7013074FF00001C9F87010C9F8B0
:100DF000781000F1E48133780293002283F001053A
:100E0000C9F89020C9F898200020019080468646B5
:100E1000024630490C7844F0020C09EBCC030393F2
:100E2000029B002B039B5A600CBF8822C82242EA17
:100E3000080384F0010249F83C3035700A70DFF88D
:100E400068C0254BDFF88C80002840F03B81BEF164
:100E5000400F1BD142F0020C09EBCC03019ADFF8E2
:100E600048E05A60002D40F04381050445F08805B4
:100E70009DF808304EF83C50024433700C70134615
:100E8000402803D10020154A3B601080144A0123FA
:100E9000137008E688200740802007403D92FF1F1E
:100EA0006C91FF1F4892FF1F0080FF1F2492FF1FBD
:100EB000C091FF1F1492FF1F4C92FF1FC892FF1F8B
:100EC00018260000C4200740C8200740CC20074057
:100ED000D02007403C92FF1FD091FF1F7C91FF1F45
:100EE0009420074040F20232914240F0E380A28811
:100EF00002F07F02042A3FD86588002D3CD1BB490F
:100F00000290920011440A7842F002020A707BE7D4
:100F10000178A9297FF4E0AD417845297FF4DCAD63
:100F20008178C2297FF4D8ADC1786B297FF4D4AD24
:100F3000AF49B04E0878347880F00105002C40F0BD
:100F400002000D700CBF8821C82184F0010449F80B
:100F5000301009EBC000A849347000250524456015
:100F60000C70B9E540F62122914200F0A78042F2D0
:100F70002122914200F0A2809C4A0F2313709F4AC5
:100F8000012313708FE56968B1F5803F7FF4A4AD4C
:100F90009749984E0C789A4F00783578387044F01D
:100FA000020084F001070F7009EBC001002D4FF023
:100FB000000485F0010535704C600CBF8825C825FC
:100FC000904949F8305049F832106CE58849894E0B
:100FD0000D78377885F0010E002F45F0020581F875
:100FE00000E00CBF8821C82149F8351009EBC50580
:100FF00087F001070021377069605FE5824B7F4809
:101000007B491A614FF0020E80F800E0774F0A70BA
:101010007E49196099607E4E7E4D7F4C9A610D210C
:101020003970FF213170DFF808E2297022707B4DA2
:101030007B4A8EF800109F27012406F8047C5D602F
:101040000470DA6007B0BDE8F08F01238B556FE4C0
:1010500000238B556CE44FF0000388F800308EE6D7
:1010600062496C4B80220D2008701A70A2077FF530
:10107000AEADA5E56B496C4A09781170E5888542EB
:1010800080F089815A490C78402DAE4644F0020C1C
:1010900028BF4FF0400E02EB0E0309EBCC0001938A
:1010A000012342604FEA0E48CEEB05000293002573
:1010B000C822BCE6B1F5A06F7FF45EAF0123002526
:1010C0000293A1E640287FF6C5AE42F002020CEB87
:1010D000C201019E4E60BDB19DF8085049491D7086
:1010E0003346403888F8004040334CF83210CAE6A6
:1010F0009DF8083033700504019B0C7045F0C8055D
:1011000003444EF83C50BBE69DF808501D70019B0F
:101110003E4988F80040403840334CF83210B2E67F
:1011200019F0080F0CBF022303238B5500E43E4A3D
:10113000022015705570A1E73C494A68002A3FF427
:101140001BAF6588B4F804E004E00C314A68002A5B
:101150003FF412AF0B88AB42F7D14B887345F4D103
:101160002D0A032D0CBF1078088987E7A28802F0AA
:101170007F02042A3FF600AF6588002D7FF4FCAEA5
:101180001A490290920011440A7822F002020A7071
:101190003AE6022072E7C86B083800F045FA63E5CA
:1011A000486B083800F040FA58E5C86A083800F083
:1011B0003BFA4DE5506A083800F036FA42E500F097
:1011C00013FA002800F0D5800830104AC4F88400D3
:1011D000C4F8802000F008FA002800F0C48008302D
:1011E000084AC9F88C00C9F8882004E6C0200740E6
:1011F0003C92FF1FD091FF1FD191FF1F9420074009
:101200005F92FF1FC80040000080FF1F8800400061
:101210008820074080200740982007408091FF1FCA
:10122000D491FF1F4892FF1F4092FF1F1C26000011
:101230008C20074000F0D8F9002800F0A680083084
:101240005D4AC8F86400C8F8602000F0CDF90028B5
:1012500000F095800830594AC9F86C00C9F8682038
:10126000BCE500F0C1F9002877D00830524AC8F830
:101270004400C8F8402000F0B7F9002867D00830D3
:101280004E4AC9F84C00C9F848209AE500F0ACF97C
:10129000002856D00830484AC9F82400C9F8202050
:1012A00000F0A2F9002846D00830444AC9F82C00C2
:1012B000C9F8282078E5C86F083800F0B5F903E5CB
:1012C000486F083800F0B0F9F8E4D1F89C0008380D
:1012D00000F0AAF910E5D1F89400083800F0A4F95C
:1012E00004E5D1F88C00083800F09EF9F8E4D1F854
:1012F0008400083800F098F9ECE4C86D083800F074
:1013000093F9C9E4486D083800F08EF9BEE4C86C62
:10131000083800F089F9B3E4486C083800F084F923
:10132000A8E4C86E083800F07FF9C1E4486E0838B8
:1013300000F07AF9B6E42A78C9F8280001322A7058
:1013400032E52A78C9F8200001322A70A8E72A7805
:10135000C9F8480001322A7033E52A78C8F84000FD
:1013600001322A7087E72A78C9F8880001322A708A
:1013700041E52A78C4F8800001322A702AE72A78E9
:10138000C9F8680001322A7028E52A78C8F8600098
:1013900001322A7059E74028864628BF4FF0400E98
:1013A00002EB0E0301930123CEEB00004FEA0E483F
:1013B000002502932DE500BE88004000C8004000D3
:1013C0002DE9F843204C00F05FFB002204F1A0005F
:1013D00023461A605A60083383424FF00001F8D167
:1013E0001A4A1B4F13681B4D1B481C4EDFF87880B0
:1013F000DFF878C0DFF87890DFF878E043F48023F6
:101400001360C4F307233B70C4F307432B70240E0F
:10141000FF2302F528320470114D88F8003011487E
:101420008CF80030D4323370012389F800307026F4
:101430008EF800104FF40074102107F8183C2E703D
:1014400004601170BDE8F8830080FF1F3480044001
:101450009C200740B0200740B420074010200740E0
:1014600049E400E008E100E08020074088200740D0
:10147000942007400021074070B5194D2B785BB3CD
:10148000184E43F22D3408E0013C22D03378154A3F
:1014900003BB00F0EDF92B78F3B10320FFF742F91D
:1014A0000328F1D800F0A0F801460028ECD00E4A3D
:1014B0000E4B12780272002444729A881868C1F8A0
:1014C0000A000823CA810B800320FFF7A5F92046F4
:1014D00070BD044A012313704FF0FF3070BD00BF90
:1014E0004892FF1F5E92FF1F5692FF1F5092FF1FF0
:1014F00038B50A4C0A4D2070002329706370A37020
:10150000E37023716371FFF7B7FF00B138BD287036
:101510002070BDE83840FFF7AFBF00BF5092FF1FFB
:101520005692FF1F1F2804D80A2814D00B2816D063
:1015300070477F28FCD80B4B184410F8200C00286B
:10154000F6D010F0400F18BF022100F03F0008BF96
:101550000021FFF7CDBF28200021FFF7C9BF2B20B6
:10156000FAE700BFB8250000030612D5BF2808D847
:101570001B4A1368012B00F03F0029D0022B16D024
:101580007047DF280AD9EF281BD9154BFF221A60B4
:101590007047134B00221A60FFF7C4BF8001114946
:1015A0000F4B00F4F860012208801A6070470D4963
:1015B0000B8810B443EA801001241460088010BC2A
:1015C000DEE70849064B0003022208801A607047D4
:1015D000044B1988002308431360FFF7A3BF00BF23
:1015E0005892FF1F5C92FF1F72B60D480268B2FA54
:1015F00082F30D2B10DC4FF00041D94022EA0102AA
:10160000026062B6074803EBC303DB00C218002187
:10161000C15010465160704762B60020704700BF4D
:10162000B487FF1FBC83FF1F0D4B0E4AC31AA2FBDA
:1016300003231B090D2B0CD80B4A127852B972B632
:101640000A484FF00041026821FA03F31A4302608E
:1016500062B67047064A1278002AF0D0FFF778B8D1
:10166000BC83FF1F398EE3383D92FF1FB487FF1FF5
:101670004892FF1F38B5164D2868E0B101884488AC
:10168000A14213DD03191B7A83B104F10803C218C8
:101690000C1B002302E012F8011F21B10133A34209
:1016A000F9D1204638BD1C46204638BDFFF7BCFFA7
:1016B0000020286038BD074B1B780BB9002038BDCF
:1016C0000220FFF711F828600028D7D1F6E700BF05
:1016D0006892FF1F4892FF1F0D4B1B78BBB910B5D6
:1016E0000C4C216803F0FF024B883F2B07DC0733CB
:1016F0000B4401F1470003F8012F8342FBD1402343
:101700000B800120FFF788F80023236010BD70478D
:101710006092FF1F6492FF1F70B5EFF3108272B6E4
:101720000C4C206880B10C4E00254369236073B1D6
:101730009D6102B962B6457783689847EFF31082DE
:1017400072B620680028F0D102B962B670BD33606D
:10175000EFE700BF7092FF1F7492FF1FFFF7DCBF1F
:10176000024A136801331360704700BF6491FF1F82
:1017700000207047704700BFF8B50E4671B17AB1CE
:101780000746144600253B6816F8011B1B683846BF
:101790009847013C0544F6D12846F8BD0846F8BDF7
:1017A0001046F8BD00B5064A036812885B6883B02E
:1017B00001A9ADF804200222984703B05DF804FBAC
:1017C0009C250000F0B507468BB0002A33D0012AD3
:1017D00008BF0A2251B3212400E0F4B2B1FBF2F5B4
:1017E00002FB1511C8B2092900F1300198BFC8B237
:1017F0000AA988BF3730214488BFC0B201F8240C41
:10180000661E2946002DE8D133B1013CE4B20AAB93
:1018100023442D2203F8242C3B6801AA11195B688C
:101820003846C4F1220298470BB0F0BD30228DF843
:1018300025202124E8E70368C9B21B6898470BB04C
:10184000F0BD00BF0029BABF49422D2300230A2260
:10185000FFF7B8BF08B5FEF709FEFEF709FE00F076
:1018600007F8FAE708B50846FFF77EFE012008BD35
:101870002DE9F843314E337893B1314F3A787AB944
:101880000122D9073A7036D49A0719D400225B078F
:101890003A7005D52B4B1A6812B1EFF305820AB1E5
:1018A000BDE8F883EFF3108172B6186818B1264CC2
:1018B0002278002A2ED00029F2D162B6BDE8F88342
:1018C000DFF8908098F80020002ADFD0DFF88890B9
:1018D000002405E0013498F80030E4B2A34212D9A4
:1018E00059F824502B6828461B6998470028F1D0E6
:1018F0002B699847EEE7FFF7BDFEC8B9134B1B787D
:101900001BB93378C0E73378C0E7337803F0FE03C0
:101910003370B9E745691D60012323705DB1AA6189
:1019200001B962B600254577836898472570B7E707
:1019300000F0ECF8E2E7064B1D60F1E7C087FF1FFF
:101940008192FF1F7C92FF1F8092FF1F0689FF1F5D
:101950007892FF1F9092FF1F8492FF1F30B4294896
:10196000294A2A4B2A4D6024E121047011701B780A
:10197000284C082B30D00A2B2748284937D00C2B6D
:101980000CBF34223C2212232A60236002600B60C9
:10199000234B24491B78244ABBB101230B601360FD
:1019A000224B23491B78234A012B26D9042B0FD91C
:1019B000082B1ED9102B94BF862387230B6013603E
:1019C0001D4B01221A7030BC70470B601360E7E7B3
:1019D00084230B601360F3E700F58E200F49083075
:1019E000002213232A60236002600B60D0E73822B4
:1019F000F7E785230B601360E2E780230B60136039
:101A0000DEE700BF0040074001400740C187FF1FDD
:101A100008B003400CB0034008B00B400CB00B40C2
:101A20008392FF1F20B0034020B00B40C287FF1FEE
:101A300024B0034024B00B408292FF1FF0B44D1E2F
:101A40002E46002400E00134B0FBF2F302FB130049
:101A5000092800F130078ABF3730F8B2C0B206F863
:101A6000010F1846002BEED10A1953704CB11078B3
:101A700015F8016F28700133E01A834202F80169FA
:101A8000F5DB0846F0BC704770B584B072B6194BF0
:101A9000194D1A48702241260F2480211A702E7089
:101AA0001A460470197013781B06FCD5144B18687D
:101AB00062B6144B144C984298BF00EB800001A909
:101AC00098BF40000A22FFF7B9FF01A92046002372
:101AD00011F8012B01333AB10A2B20F8022FF7D16C
:101AE0001623237004B070BD5B00DBB2237004B01A
:101AF00070BD00BF00000240070002400600024027
:101B0000080002407F969800F088FF1F704700BFD2
:101B1000014B1868704700BF308DFF1F08B50021CA
:101B2000044600F01BFB044B1868C36B03B19847D5
:101B30002046FEF707FD00BFB826000070B50F4E27
:101B40000F4D761BB61018BF002405D0013455F890
:101B5000043B9847A642F9D10A4E0B4D761B00F084
:101B6000ADFDB61018BF002406D0013455F8043B73
:101B70009847A642F9D170BD70BD00BFC8260000CD
:101B8000C8260000D0260000C8260000024B0146EF
:101B9000186800F00BB800BF308DFF1F024B0146E4
:101BA000186800F0AFBB00BF308DFF1F2DE9F04F6C
:101BB00001F10B05162D83B0064640F29F8035F0EB
:101BC000070500F1BF80A94200F2BC8000F0A6FA30
:101BD000B5F5FC7FC0F09C826B0A00F0BA80042B44
:101BE00000F28381A80900F1390E4FEA4E03383024
:101BF000C44F07EB8303A3F108015C68A14207D13E
:101C0000ACE0002A80F2AC80E468A14200F0A6803B
:101C1000636823F003035A1B0F2AF2DDB9493C69BC
:101C200001F1080E744500F0B381636823F00303EB
:101C30005A1B0F2A00F39981002AC1F814E0C1F859
:101C400010E080F29E80B3F5007F80F06781DB08B2
:101C500003F1010C01229B1002FA03F34A6851F8C8
:101C60003C80C4F8088001EBCC091A43A9F10803B1
:101C7000E3604A6041F83C40C8F80C4083100124FE
:101C80009C40944200F28A80144206D120F0030066
:101C90006400144200F10400FAD007EBC009CC46FE
:101CA0008046DCF80C108C4507D173E1002A80F2E5
:101CB0008181C9688C4500F06D814B6823F0030376
:101CC0005A1B0F2AF2DD0C46D1F80CC054F8088FCD
:101CD0004B1945F001054D6042F00101C8F80CC0F8
:101CE0003046CCF808807B613B61C3F80CE0C3F858
:101CF00008E059609A5000F013FA1FE0102921D82B
:101D000000F00CFA1025062302207E4F07EB830318
:101D1000A3F108025C68944200F045816368E168C1
:101D2000A56823F00303234430465A68E96042F073
:101D300001028D605A6000F0F3F90834204603B0C8
:101D4000BDE8F08F00240C232046336003B0BDE8CB
:101D5000F08F80234FF0400E3F2049E770465DE74B
:101D60002344E1685A68A56842F00102E960304600
:101D70008D605A6000F0D4F90834204603B0BDE805
:101D8000F08F234430465A6842F001025A6000F056
:101D9000C7F90834204603B0BDE8F08FBC6863681B
:101DA00023F00308A84504D3C5EB08030F2B00F369
:101DB0008C80554BDFF860911A68D9F800300133F8
:101DC0002A4404EB080A00F0608102F580520F32C9
:101DD00022F47F6222F00F0211463046019200F099
:101DE000A1F9B0F1FF3F8346019A00F05881824586
:101DF00000F2FC80454B1968DA451144196000F087
:101E00005381D9F80000DFF810E101301BBFCAEBA5
:101E10000B0A5144CEF800B019601BF0070100F026
:101E20001781C1F10800C1F58051834408315A443B
:101E3000C2F30B02C2EB010949463046019300F0A0
:101E400071F9431C019B00F03F81CBEB00024A4437
:101E500042F001021968C7F808B04944BC42CBF807
:101E600004201960DFF8A49016D0B8F10F0F40F2EB
:101E7000FD806268A8F10C0323F00703E01802F06C
:101E800001024FF0050E1A430F2B6260C0F804E008
:101E9000C0F808E000F21C811D4BBC681A68914232
:101EA00088BF19601B4B1A689142626888BF19602D
:101EB00022F003029542A2EB050301D80F2B04DCAC
:101EC000304600F02DF9002438E7621943F0010391
:101ED00045F0010565603046BA60536000F020F9B6
:101EE0000834204603B0BDE8F08F142B71D9542B71
:101EF00000F2A480280B00F16F0E4FEA4E036E3003
:101F000076E600BF348DFF1F9C92FF1FA092FF1F3B
:101F10009892FF1F9492FF1F4091FF1F5A0A042AB4
:101F20005ED9142A00F2B38002F15C0149005B32F1
:101F300007EB810C57F82110DFF8DC81ACF1080CBD
:101F40008C4500F088804A6822F00302934202D256
:101F500089688C45F7D1D1F80CC07A68C4F80CC0F8
:101F6000A160CCF80840CC6088E6631942F0010714
:101F700045F00105656030464B610B61C3F80CE02C
:101F8000C3F808E05F609A50083400F0C9F8D5E65D
:101F90004A6873E608F1010818F0030F0CF1080C09
:101FA0007FF47FAE30E0DC68A34208BF02303FF42C
:101FB00035AEB3E60B440C465A68C96854F8085F5E
:101FC00042F001025A603046E9608D6000F0A8F8E6
:101FD000B4E603F15C0E03F15B004FEA4E0307E643
:101FE0009A0902F1390149003832A1E7BC424A4B53
:101FF0003FF400AF9C68626822F003025AE759F888
:102000000839994540F0828010F0030F00F1FF304D
:10201000F5D17B6823EA04037B6064009C423FF6B1
:10202000BDAE002C3FF4BAAE1C4240467FF435AE44
:1020300064001C4200F10400FAD02EE6B3F5AA7F3A
:1020400018D8E80B00F1780E4FEA4E037730CFE551
:102050004FF48051EBE60121D8F80430921001FAD8
:1020600002F21A43C8F80420614677E70123CBF84F
:10207000043025E740F25452934220D8A80C00F1D6
:102080007D0E4FEA4E037C30B2E51032A4E6542AAE
:1020900026D81A0B02F16F0149006E3248E7BC687E
:1020A000626822F0030205E7CAF30B0000287FF400
:1020B000A8AE4244BB6842F001025A60ECE6FE233F
:1020C0004FF07F0E7E2093E501224FF00009C1E61C
:1020D00004F10801304600F015F9D9F80010DBE6EC
:1020E000B2F5AA7F05D8DA0B02F178014900773200
:1020F0001EE740F254518A4205D89A0C02F17D0144
:1021000049007C3214E7FE217E2211E77B6884E7D8
:10211000E808431C5B00F8E5348DFF1F704700BFE3
:10212000704700BF38B5074C0023054608462360BA
:10213000FEF7F2F9431C00D038BD2368002BFBD01A
:102140002B6038BDD092FF1F024B13B1024800F044
:1021500071B8704700000000412200002DE9F04FE7
:10216000324B85B01B68029303F5A47301900E46B1
:102170000393029BD3F848713FB3DDF80CA04FF0F6
:102180000109D3467C68651E0ED4013407EB840434
:102190004FF00008E6B1D4F800319E4218D0013D5E
:1021A0006B1CA4F10404F5D1214B73B17B68002BA7
:1021B00036D13B68002B34D03846CBF80030FFF7DF
:1021C000EDFCDBF80070002FDCD105B0BDE8F08F2E
:1021D0007B682268013BAB420CBF7D60C4F8008085
:1021E000002ADCD0D7F88811D7F804A009FA05F343
:1021F0000B420FD0D7F88C110B420DD1D4F88010C0
:10220000019890477B685345B3D1DBF80030BB425F
:10221000C5D0AEE79047F5E7D4F880009047F1E7E6
:102220003B68BB461F46002FACD1CEE7B826000066
:102230009D1B0000002301461A46184600F04AB9CB
:1022400038B5074D074C2C1BA41005D0013C55F8A0
:10225000043D9847002CF9D1BDE8384000F038BA69
:102260000000000000000000F8B5234F0C460646B1
:10227000FFF754FFBB685D6825F00305291B01F6D5
:10228000EF7121F47F6121F00F01A1F58054B4F5C5
:10229000805F07DB00213046FFF744FFBB682B441B
:1022A000984204D03046FFF73BFF0020F8BD614262
:1022B0003046FFF737FF01300DD0104BBA68196870
:1022C0002D1B45F001053046091B55601960FFF7CD
:1022D00027FF0120F8BD00213046FFF723FFBA6831
:1022E000831A0F2BDEDD064C0449246843F00103FA
:1022F000001B53600860D5E7348DFF1FA092FF1FBD
:102300004091FF1F002945D02DE9F0410D46804640
:10231000FFF704FF55F8047C6A4927F00103A5F193
:102320000804E2188E685068B24220F0030062D0C0
:10233000FE0750600BD455F8087CE41B01F1080E31
:10234000A56875453B446FD0E768EF60BD60151820
:102350006D68ED0742D543F001026260E350B3F5CA
:10236000007F18D2DB085A1C4D6851F83270A76004
:1023700001209B1000FA03F301EBC2001D43083853
:10238000E0604D6041F83240FC604046BDE8F041FD
:10239000FFF7C6BE70475A0A042A53D89A0902F1B9
:1023A00039077F0002F1380501EB870051F827203B
:1023B0004449083890424DD0516821F003018B42C6
:1023C00002D292689042F7D1D068E060A260846047
:1023D000D4604046BDE8F041FFF7A2BE95683A4F91
:1023E000BD4203443FD0D068E86043F001028560FD
:1023F0006260E350B3E7FF07034407D455F8082CA5
:10240000A41A1344A068E268C26090602F4A126860
:1024100043F00100934260608C60B6D32C4B404681
:102420001968FFF721FFB0E711184968C90744D4BC
:102430009168D268CA60034443F001009160606013
:10244000E350A2E7142A17D802F15C077F0002F1DB
:102450005B05A9E7AA104B68012505FA02F21343B0
:102460004B600246B1E743F001024C610C61E5604C
:10247000A5606260E35088E7542A06D81A0B02F17F
:102480006F077F0002F16E058EE7B2F5AA7F06D8CE
:10249000DA0B02F178077F0002F1770584E740F25A
:1024A0005450824206D89A0C02F17D077F0002F157
:1024B0007C0579E7FE277E2576E743F0010262601E
:1024C000E35062E7348DFF1F3C8DFF1F3C91FF1FDF
:1024D0009C92FF1F2DE9F047254C2568D5F848410F
:1024E0000646884692469946C4B360681F2817DCA2
:1024F000431C76B104EB80050122C5F888A0D4F80E
:10250000881182401143022EC4F88811C5F8089141
:102510001ED00230636044F820800020BDE8F087C0
:10252000144B03B34FF4C870FFF730FB0446D0B12F
:10253000D5F84831002780E88800C5F8484138467A
:102540000123C4F88871C4F88C71002EE1D0D1E762
:10255000D4F88C110A43C4F88C21DAE705F5A67487
:10256000C5F84841C1E74FF0FF30BDE8F08700BF34
:10257000B82600008D1B000048656C6C6F20576FFB
:10258000726C642066726F6D20696E736964652079
:1025900074686520626F6172642120000D0AFFFF7C
:1025A000000000000000000065180000791700001E
:1025B00071170000751700002C5E7460616264344E
:1025C0006667656E362D3738271E1F20212223248B
:1025D00025267333762E77785F4445464748494A27
:1025E0004B4C4D4E4F505152535455565758595AC3
:1025F0005B5C5D2F3130636D350405060708090A01
:102600000B0C0D0E0F101112131415161718191AA2
:102610001B1C1D6F7170752A15191515000100001E
:102620000488FF1F12000000000200003088FF1F16
:102630005B000000002201008C88FF1F21000000C9
:10264000002101005B88FF1F09000000002200003C
:10265000C487FF1F3F000000002100004288FF1FC9
:102660000900000000220200B088FF1F28000000BF
:10267000002102007B88FF1F09000000000300000A
:10268000EC88FF1F00000000010309041888FF1FE9
:102690000000000002030904D888FF1F00000000AA
:1026A00003030904F088FF1F000000000000000081
:1026B00000000000000000000889FF1FF8B500BFFF
:1026C000F8BC08BC9E467047492100003504000054
:0426D000F8B500BF9A
:1026D400D492FF1FFFFFFFFFA825000000000000A9
:1026E400010A040005010906A10175019508050701
:1026F40019E029E715002501810295017508810378
:1027040095057501050819012905910295017503BF
:102714009103950675081500257F05071900297F83
:102724008100C0001201100100000040C016D00456
:1027340075020102030100001803540065006500DE
:102744006E00730079006400750069006E006F000C
:1027540009025B00030100C0320904000001030107
:102764000100092111010001223F0007058303082C
:102774000001090401000203000000092111010005
:1027840001222100070581034000010705020320FF
:1027940000020904020001030000000921110100E4
:1027A40001222800070584030800040006C9FF0964
:1027B40004A15C7508150026FF0095400975810287
:1027C40095200976910295040976B102C0000000B3
:1027D400050C0901A101750A950419002A9C02152A
:1027E40000269C028100050175089503190029B78C
:1027F400150026B7008100C012034B006500790064
:1028040062006F00610072006400000004030904A8
:102814000C030000000000000000000000000000A5
:10282400000000000000010000000000F48BFF1F06
:102834005C8CFF1FC48CFF1F000000000000000020
:102844000000000000000000000000000000000084
:102854000000000000000000000000000000000074
:102864000000000000000000000000000000000064
:102874000000000000000000000000000000000054
:102884000000000000000000000000000000000044
:102894000000000000000000000000000000000034
:1028A4000000000000000000000000000000000024
:1028B4000000000000000000000000000000000014
:1028C4000000000000000000000000000000000004
:1028D40001000000000000000E33CDAB34126DE6A1
:1028E400ECDE05000B00000000000000000000000A
:1028F40000000000000000000000000000000000D4
:1029040000000000000000000000000000000000C3
:1029140000000000000000000000000000000000B3
:1029240000000000000000000000000000000000A3
:102C54000889FF1F0000000000000000348DFF1FE2
:102C6400348DFF1F3C8DFF1F3C8DFF1F448DFF1FC4
:102C7400448DFF1F4C8DFF1F4C8DFF1F548DFF1F74
:102C8400548DFF1F5C8DFF1F5C8DFF1F648DFF1F24
:102C9400648DFF1F6C8DFF1F6C8DFF1F748DFF1FD4
:102CA400748DFF1F7C8DFF1F7C8DFF1F848DFF1F84
:102CB400848DFF1F8C8DFF1F8C8DFF1F948DFF1F34
:102CC400948DFF1F9C8DFF1F9C8DFF1FA48DFF1FE4
:102CD400A48DFF1FAC8DFF1FAC8DFF1FB48DFF1F94
:102CE400B48DFF1FBC8DFF1FBC8DFF1FC48DFF1F44
:102CF400C48DFF1FCC8DFF1FCC8DFF1FD48DFF1FF4
:102D0400D48DFF1FDC8DFF1FDC8DFF1FE48DFF1FA3
:102D1400E48DFF1FEC8DFF1FEC8DFF1FF48DFF1F53
:102D2400F48DFF1FFC8DFF1FFC8DFF1F048EFF1F02
:102D3400048EFF1F0C8EFF1F0C8EFF1F148EFF1FAF
:102D4400148EFF1F1C8EFF1F1C8EFF1F248EFF1F5F
:102D5400248EFF1F2C8EFF1F2C8EFF1F348EFF1F0F
:102D6400348EFF1F3C8EFF1F3C8EFF1F448EFF1FBF
:102D7400448EFF1F4C8EFF1F4C8EFF1F548EFF1F6F
:102D8400548EFF1F5C8EFF1F5C8EFF1F648EFF1F1F
:102D9400648EFF1F6C8EFF1F6C8EFF1F748EFF1FCF
:102DA400748EFF1F7C8EFF1F7C8EFF1F848EFF1F7F
:102DB400848EFF1F8C8EFF1F8C8EFF1F948EFF1F2F
:102DC400948EFF1F9C8EFF1F9C8EFF1FA48EFF1FDF
:102DD400A48EFF1FAC8EFF1FAC8EFF1FB48EFF1F8F
:102DE400B48EFF1FBC8EFF1FBC8EFF1FC48EFF1F3F
:102DF400C48EFF1FCC8EFF1FCC8EFF1FD48EFF1FEF
:102E0400D48EFF1FDC8EFF1FDC8EFF1FE48EFF1F9E
:102E1400E48EFF1FEC8EFF1FEC8EFF1FF48EFF1F4E
:102E2400F48EFF1FFC8EFF1FFC8EFF1F048FFF1FFD
:102E3400048FFF1F0C8FFF1F0C8FFF1F148FFF1FAA
:102E4400148FFF1F1C8FFF1F1C8FFF1F248FFF1F5A
:102E5400248FFF1F2C8FFF1F2C8FFF1F348FFF1F0A
:102E6400348FFF1F3C8FFF1F3C8FFF1F448FFF1FBA
:102E7400448FFF1F4C8FFF1F4C8FFF1F548FFF1F6A
:102E8400548FFF1F5C8FFF1F5C8FFF1F648FFF1F1A
:102E9400648FFF1F6C8FFF1F6C8FFF1F748FFF1FCA
:102EA400748FFF1F7C8FFF1F7C8FFF1F848FFF1F7A
:102EB400848FFF1F8C8FFF1F8C8FFF1F948FFF1F2A
:102EC400948FFF1F9C8FFF1F9C8FFF1FA48FFF1FDA
:102ED400A48FFF1FAC8FFF1FAC8FFF1FB48FFF1F8A
:102EE400B48FFF1FBC8FFF1FBC8FFF1FC48FFF1F3A
:102EF400C48FFF1FCC8FFF1FCC8FFF1FD48FFF1FEA
:102F0400D48FFF1FDC8FFF1FDC8FFF1FE48FFF1F99
:102F1400E48FFF1FEC8FFF1FEC8FFF1FF48FFF1F49
:102F2400F48FFF1FFC8FFF1FFC8FFF1F0490FF1FF8
:102F34000490FF1F0C90FF1F0C90FF1F1490FF1FA5
:102F44001490FF1F1C90FF1F1C90FF1F2490FF1F55
:102F54002490FF1F2C90FF1F2C90FF1F3490FF1F05
:102F64003490FF1F3C90FF1F3C90FF1F4490FF1FB5
:102F74004490FF1F4C90FF1F4C90FF1F5490FF1F65
:102F84005490FF1F5C90FF1F5C90FF1F6490FF1F15
:102F94006490FF1F6C90FF1F6C90FF1F7490FF1FC5
:102FA4007490FF1F7C90FF1F7C90FF1F8490FF1F75
:102FB4008490FF1F8C90FF1F8C90FF1F9490FF1F25
:102FC4009490FF1F9C90FF1F9C90FF1FA490FF1FD5
:102FD400A490FF1FAC90FF1FAC90FF1FB490FF1F85
:102FE400B490FF1FBC90FF1FBC90FF1FC490FF1F35
:102FF400C490FF1FCC90FF1FCC90FF1FD490FF1FE5
:10300400D490FF1FDC90FF1FDC90FF1FE490FF1F94
:10301400E490FF1FEC90FF1FEC90FF1FF490FF1F44
:10302400F490FF1FFC90FF1FFC90FF1F0491FF1FF3
:103034000491FF1F0C91FF1F0C91FF1F1491FF1FA0
:103044001491FF1F1C91FF1F1C91FF1F2491FF1F50
:103054002491FF1F2C91FF1F2C91FF1F00000200E1
:04306400FFFFFFFF6C
:00000001FF
